{
  "_format": "hh-sol-artifact-1",
  "contractName": "CommunityDAO",
  "sourceName": "contracts/CommunityDAO.sol",
  "abi": [
    {
      "anonymous": false,
      "inputs": [
        {
          "indexed": false,
          "internalType": "uint256",
          "name": "id",
          "type": "uint256"
        },
        {
          "indexed": false,
          "internalType": "address",
          "name": "proposer",
          "type": "address"
        },
        {
          "indexed": false,
          "internalType": "string",
          "name": "description",
          "type": "string"
        },
        {
          "indexed": false,
          "internalType": "uint256",
          "name": "deadline",
          "type": "uint256"
        }
      ],
      "name": "ProposalCreated",
      "type": "event"
    },
    {
      "anonymous": false,
      "inputs": [
        {
          "indexed": false,
          "internalType": "uint256",
          "name": "proposalId",
          "type": "uint256"
        },
        {
          "indexed": false,
          "internalType": "address",
          "name": "voter",
          "type": "address"
        }
      ],
      "name": "Voted",
      "type": "event"
    },
    {
      "inputs": [
        {
          "internalType": "string",
          "name": "_description",
          "type": "string"
        },
        {
          "internalType": "string",
          "name": "_ipfsHash",
          "type": "string"
        },
        {
          "internalType": "address payable",
          "name": "_recipient",
          "type": "address"
        },
        {
          "internalType": "uint256",
          "name": "_amount",
          "type": "uint256"
        }
      ],
      "name": "createProposal",
      "outputs": [],
      "stateMutability": "nonpayable",
      "type": "function"
    },
    {
      "inputs": [
        {
          "internalType": "uint256",
          "name": "_proposalId",
          "type": "uint256"
        }
      ],
      "name": "executeProposal",
      "outputs": [],
      "stateMutability": "payable",
      "type": "function"
    },
    {
      "inputs": [],
      "name": "getAllProposals",
      "outputs": [
        {
          "components": [
            {
              "internalType": "uint256",
              "name": "id",
              "type": "uint256"
            },
            {
              "internalType": "address",
              "name": "proposer",
              "type": "address"
            },
            {
              "internalType": "string",
              "name": "description",
              "type": "string"
            },
            {
              "internalType": "string",
              "name": "ipfsHash",
              "type": "string"
            },
            {
              "internalType": "uint256",
              "name": "voteCount",
              "type": "uint256"
            },
            {
              "internalType": "uint256",
              "name": "deadline",
              "type": "uint256"
            },
            {
              "internalType": "bool",
              "name": "executed",
              "type": "bool"
            },
            {
              "internalType": "address payable",
              "name": "recipient",
              "type": "address"
            },
            {
              "internalType": "uint256",
              "name": "amount",
              "type": "uint256"
            }
          ],
          "internalType": "struct CommunityDAO.Proposal[]",
          "name": "",
          "type": "tuple[]"
        }
      ],
      "stateMutability": "view",
      "type": "function"
    },
    {
      "inputs": [
        {
          "internalType": "uint256",
          "name": "",
          "type": "uint256"
        },
        {
          "internalType": "address",
          "name": "",
          "type": "address"
        }
      ],
      "name": "hasVoted",
      "outputs": [
        {
          "internalType": "bool",
          "name": "",
          "type": "bool"
        }
      ],
      "stateMutability": "view",
      "type": "function"
    },
    {
      "inputs": [
        {
          "internalType": "uint256",
          "name": "",
          "type": "uint256"
        }
      ],
      "name": "proposals",
      "outputs": [
        {
          "internalType": "uint256",
          "name": "id",
          "type": "uint256"
        },
        {
          "internalType": "address",
          "name": "proposer",
          "type": "address"
        },
        {
          "internalType": "string",
          "name": "description",
          "type": "string"
        },
        {
          "internalType": "string",
          "name": "ipfsHash",
          "type": "string"
        },
        {
          "internalType": "uint256",
          "name": "voteCount",
          "type": "uint256"
        },
        {
          "internalType": "uint256",
          "name": "deadline",
          "type": "uint256"
        },
        {
          "internalType": "bool",
          "name": "executed",
          "type": "bool"
        },
        {
          "internalType": "address payable",
          "name": "recipient",
          "type": "address"
        },
        {
          "internalType": "uint256",
          "name": "amount",
          "type": "uint256"
        }
      ],
      "stateMutability": "view",
      "type": "function"
    },
    {
      "inputs": [
        {
          "internalType": "uint256",
          "name": "_proposalId",
          "type": "uint256"
        }
      ],
      "name": "vote",
      "outputs": [],
      "stateMutability": "nonpayable",
      "type": "function"
    },
    {
      "stateMutability": "payable",
      "type": "receive"
    }
  ],
  "bytecode": "0x6080604052348015600f57600080fd5b50611c308061001f6000396000f3fe6080604052600436106100595760003560e01c80630121b93f14610065578063013cf08b1461008e5780630d61b519146100d357806343859632146100ef5780637cdc2eb71461012c578063cceb68f51461015557610060565b3661006057005b600080fd5b34801561007157600080fd5b5061008c60048036038101906100879190610d86565b610180565b005b34801561009a57600080fd5b506100b560048036038101906100b09190610d86565b6103a2565b6040516100ca99989796959493929190610ecf565b60405180910390f35b6100ed60048036038101906100e89190610d86565b61054d565b005b3480156100fb57600080fd5b5061011660048036038101906101119190610f96565b610781565b6040516101239190610fd6565b60405180910390f35b34801561013857600080fd5b50610153600480360381019061014e9190611152565b6107b0565b005b34801561016157600080fd5b5061016a6109b9565b6040516101779190611405565b60405180910390f35b80426001600083815260200190815260200160002060050154116101d9576040517f08c379a00000000000000000000000000000000000000000000000000000000081526004016101d090611473565b60405180910390fd5b6000600160008481526020019081526020016000206000015403610232576040517f08c379a0000000000000000000000000000000000000000000000000000000008152600401610229906114df565b60405180910390fd5b6002600083815260200190815260200160002060003373ffffffffffffffffffffffffffffffffffffffff1673ffffffffffffffffffffffffffffffffffffffff16815260200190815260200160002060009054906101000a900460ff16156102d0576040517f08c379a00000000000000000000000000000000000000000000000000000000081526004016102c79061154b565b60405180910390fd5b6001600083815260200190815260200160002060040160008154809291906102f79061159a565b919050555060016002600084815260200190815260200160002060003373ffffffffffffffffffffffffffffffffffffffff1673ffffffffffffffffffffffffffffffffffffffff16815260200190815260200160002060006101000a81548160ff0219169083151502179055507f030b0f8dcd86a031eddb071f91882edeac8173663ba775713b677b42b51be44b82336040516103969291906115e2565b60405180910390a15050565b60016020528060005260406000206000915090508060000154908060010160009054906101000a900473ffffffffffffffffffffffffffffffffffffffff16908060020180546103f19061163a565b80601f016020809104026020016040519081016040528092919081815260200182805461041d9061163a565b801561046a5780601f1061043f5761010080835404028352916020019161046a565b820191906000526020600020905b81548152906001019060200180831161044d57829003601f168201915b50505050509080600301805461047f9061163a565b80601f01602080910402602001604051908101604052809291908181526020018280546104ab9061163a565b80156104f85780601f106104cd576101008083540402835291602001916104f8565b820191906000526020600020905b8154815290600101906020018083116104db57829003601f168201915b5050505050908060040154908060050154908060060160009054906101000a900460ff16908060060160019054906101000a900473ffffffffffffffffffffffffffffffffffffffff16908060070154905089565b600060016000838152602001908152602001600020905080600501544210156105ab576040517f08c379a00000000000000000000000000000000000000000000000000000000081526004016105a2906116b7565b60405180910390fd5b8060060160009054906101000a900460ff16156105fd576040517f08c379a00000000000000000000000000000000000000000000000000000000081526004016105f490611723565b60405180910390fd5b600a816004015411610644576040517f08c379a000000000000000000000000000000000000000000000000000000000815260040161063b9061178f565b60405180910390fd5b806007015447101561068b576040517f08c379a0000000000000000000000000000000000000000000000000000000008152600401610682906117fb565b60405180910390fd5b60018160060160006101000a81548160ff02191690831515021790555060008160060160019054906101000a900473ffffffffffffffffffffffffffffffffffffffff1673ffffffffffffffffffffffffffffffffffffffff1682600701546040516106f69061184c565b60006040518083038185875af1925050503d8060008114610733576040519150601f19603f3d011682016040523d82523d6000602084013e610738565b606091505b505090508061077c576040517f08c379a0000000000000000000000000000000000000000000000000000000008152600401610773906118ad565b60405180910390fd5b505050565b60026020528160005260406000206020528060005260406000206000915091509054906101000a900460ff1681565b6107ba6000610c9e565b60006107c66000610cb4565b90506040518061012001604052808281526020013373ffffffffffffffffffffffffffffffffffffffff1681526020018681526020018581526020016000815260200162093a804261081891906118cd565b81526020016000151581526020018473ffffffffffffffffffffffffffffffffffffffff16815260200183815250600160008381526020019081526020016000206000820151816000015560208201518160010160006101000a81548173ffffffffffffffffffffffffffffffffffffffff021916908373ffffffffffffffffffffffffffffffffffffffff16021790555060408201518160020190816108bf9190611aad565b5060608201518160030190816108d59190611aad565b506080820151816004015560a0820151816005015560c08201518160060160006101000a81548160ff02191690831515021790555060e08201518160060160016101000a81548173ffffffffffffffffffffffffffffffffffffffff021916908373ffffffffffffffffffffffffffffffffffffffff16021790555061010082015181600701559050507f98120a6aaa04295520ab4e01c6c1235dd316e822cc9ff31db7b3f197366d18bd81338760016000868152602001908152602001600020600501546040516109aa9493929190611b7f565b60405180910390a15050505050565b606060006109c76000610cb4565b905060008167ffffffffffffffff8111156109e5576109e4610ffb565b5b604051908082528060200260200182016040528015610a1e57816020015b610a0b610cc2565b815260200190600190039081610a035790505b50905060005b82811015610c955760016000600183610a3d91906118cd565b815260200190815260200160002060405180610120016040529081600082015481526020016001820160009054906101000a900473ffffffffffffffffffffffffffffffffffffffff1673ffffffffffffffffffffffffffffffffffffffff1673ffffffffffffffffffffffffffffffffffffffff168152602001600282018054610ac79061163a565b80601f0160208091040260200160405190810160405280929190818152602001828054610af39061163a565b8015610b405780601f10610b1557610100808354040283529160200191610b40565b820191906000526020600020905b815481529060010190602001808311610b2357829003601f168201915b50505050508152602001600382018054610b599061163a565b80601f0160208091040260200160405190810160405280929190818152602001828054610b859061163a565b8015610bd25780601f10610ba757610100808354040283529160200191610bd2565b820191906000526020600020905b815481529060010190602001808311610bb557829003601f168201915b5050505050815260200160048201548152602001600582015481526020016006820160009054906101000a900460ff161515151581526020016006820160019054906101000a900473ffffffffffffffffffffffffffffffffffffffff1673ffffffffffffffffffffffffffffffffffffffff1673ffffffffffffffffffffffffffffffffffffffff168152602001600782015481525050828281518110610c7d57610c7c611bcb565b5b60200260200101819052508080600101915050610a24565b50809250505090565b6001816000016000828254019250508190555050565b600081600001549050919050565b60405180610120016040528060008152602001600073ffffffffffffffffffffffffffffffffffffffff16815260200160608152602001606081526020016000815260200160008152602001600015158152602001600073ffffffffffffffffffffffffffffffffffffffff168152602001600081525090565b6000604051905090565b600080fd5b600080fd5b6000819050919050565b610d6381610d50565b8114610d6e57600080fd5b50565b600081359050610d8081610d5a565b92915050565b600060208284031215610d9c57610d9b610d46565b5b6000610daa84828501610d71565b91505092915050565b610dbc81610d50565b82525050565b600073ffffffffffffffffffffffffffffffffffffffff82169050919050565b6000610ded82610dc2565b9050919050565b610dfd81610de2565b82525050565b600081519050919050565b600082825260208201905092915050565b60005b83811015610e3d578082015181840152602081019050610e22565b60008484015250505050565b6000601f19601f8301169050919050565b6000610e6582610e03565b610e6f8185610e0e565b9350610e7f818560208601610e1f565b610e8881610e49565b840191505092915050565b60008115159050919050565b610ea881610e93565b82525050565b6000610eb982610dc2565b9050919050565b610ec981610eae565b82525050565b600061012082019050610ee5600083018c610db3565b610ef2602083018b610df4565b8181036040830152610f04818a610e5a565b90508181036060830152610f188189610e5a565b9050610f276080830188610db3565b610f3460a0830187610db3565b610f4160c0830186610e9f565b610f4e60e0830185610ec0565b610f5c610100830184610db3565b9a9950505050505050505050565b610f7381610de2565b8114610f7e57600080fd5b50565b600081359050610f9081610f6a565b92915050565b60008060408385031215610fad57610fac610d46565b5b6000610fbb85828601610d71565b9250506020610fcc85828601610f81565b9150509250929050565b6000602082019050610feb6000830184610e9f565b92915050565b600080fd5b600080fd5b7f4e487b7100000000000000000000000000000000000000000000000000000000600052604160045260246000fd5b61103382610e49565b810181811067ffffffffffffffff8211171561105257611051610ffb565b5b80604052505050565b6000611065610d3c565b9050611071828261102a565b919050565b600067ffffffffffffffff82111561109157611090610ffb565b5b61109a82610e49565b9050602081019050919050565b82818337600083830152505050565b60006110c96110c484611076565b61105b565b9050828152602081018484840111156110e5576110e4610ff6565b5b6110f08482856110a7565b509392505050565b600082601f83011261110d5761110c610ff1565b5b813561111d8482602086016110b6565b91505092915050565b61112f81610eae565b811461113a57600080fd5b50565b60008135905061114c81611126565b92915050565b6000806000806080858703121561116c5761116b610d46565b5b600085013567ffffffffffffffff81111561118a57611189610d4b565b5b611196878288016110f8565b945050602085013567ffffffffffffffff8111156111b7576111b6610d4b565b5b6111c3878288016110f8565b93505060406111d48782880161113d565b92505060606111e587828801610d71565b91505092959194509250565b600081519050919050565b600082825260208201905092915050565b6000819050602082019050919050565b61122681610d50565b82525050565b61123581610de2565b82525050565b600082825260208201905092915050565b600061125782610e03565b611261818561123b565b9350611271818560208601610e1f565b61127a81610e49565b840191505092915050565b61128e81610e93565b82525050565b61129d81610eae565b82525050565b6000610120830160008301516112bc600086018261121d565b5060208301516112cf602086018261122c565b50604083015184820360408601526112e7828261124c565b91505060608301518482036060860152611301828261124c565b9150506080830151611316608086018261121d565b5060a083015161132960a086018261121d565b5060c083015161133c60c0860182611285565b5060e083015161134f60e0860182611294565b5061010083015161136461010086018261121d565b508091505092915050565b600061137b83836112a3565b905092915050565b6000602082019050919050565b600061139b826111f1565b6113a581856111fc565b9350836020820285016113b78561120d565b8060005b858110156113f357848403895281516113d4858261136f565b94506113df83611383565b925060208a019950506001810190506113bb565b50829750879550505050505092915050565b6000602082019050818103600083015261141f8184611390565b905092915050565b7f50726f706f73616c20646561646c696e65206861732070617373656400000000600082015250565b600061145d601c83610e0e565b915061146882611427565b602082019050919050565b6000602082019050818103600083015261148c81611450565b9050919050565b7f50726f706f73616c20646f6573206e6f74206578697374000000000000000000600082015250565b60006114c9601783610e0e565b91506114d482611493565b602082019050919050565b600060208201905081810360008301526114f8816114bc565b9050919050565b7f416c726561647920766f74656400000000000000000000000000000000000000600082015250565b6000611535600d83610e0e565b9150611540826114ff565b602082019050919050565b6000602082019050818103600083015261156481611528565b9050919050565b7f4e487b7100000000000000000000000000000000000000000000000000000000600052601160045260246000fd5b60006115a582610d50565b91507fffffffffffffffffffffffffffffffffffffffffffffffffffffffffffffffff82036115d7576115d661156b565b5b600182019050919050565b60006040820190506115f76000830185610db3565b6116046020830184610df4565b9392505050565b7f4e487b7100000000000000000000000000000000000000000000000000000000600052602260045260246000fd5b6000600282049050600182168061165257607f821691505b6020821081036116655761166461160b565b5b50919050565b7f50726f706f73616c206973207374696c6c206163746976650000000000000000600082015250565b60006116a1601883610e0e565b91506116ac8261166b565b602082019050919050565b600060208201905081810360008301526116d081611694565b9050919050565b7f50726f706f73616c20616c726561647920657865637574656400000000000000600082015250565b600061170d601983610e0e565b9150611718826116d7565b602082019050919050565b6000602082019050818103600083015261173c81611700565b9050919050565b7f4e6f7420656e6f75676820766f74657320746f20706173730000000000000000600082015250565b6000611779601883610e0e565b915061178482611743565b602082019050919050565b600060208201905081810360008301526117a88161176c565b9050919050565b7f496e73756666696369656e7420636f6e74726163742062616c616e6365000000600082015250565b60006117e5601d83610e0e565b91506117f0826117af565b602082019050919050565b60006020820190508181036000830152611814816117d8565b9050919050565b600081905092915050565b50565b600061183660008361181b565b915061184182611826565b600082019050919050565b600061185782611829565b9150819050919050565b7f4661696c656420746f2073656e642066756e6473000000000000000000000000600082015250565b6000611897601483610e0e565b91506118a282611861565b602082019050919050565b600060208201905081810360008301526118c68161188a565b9050919050565b60006118d882610d50565b91506118e383610d50565b92508282019050808211156118fb576118fa61156b565b5b92915050565b60008190508160005260206000209050919050565b60006020601f8301049050919050565b600082821b905092915050565b6000600883026119637fffffffffffffffffffffffffffffffffffffffffffffffffffffffffffffffff82611926565b61196d8683611926565b95508019841693508086168417925050509392505050565b6000819050919050565b60006119aa6119a56119a084610d50565b611985565b610d50565b9050919050565b6000819050919050565b6119c48361198f565b6119d86119d0826119b1565b848454611933565b825550505050565b600090565b6119ed6119e0565b6119f88184846119bb565b505050565b5b81811015611a1c57611a116000826119e5565b6001810190506119fe565b5050565b601f821115611a6157611a3281611901565b611a3b84611916565b81016020851015611a4a578190505b611a5e611a5685611916565b8301826119fd565b50505b505050565b600082821c905092915050565b6000611a8460001984600802611a66565b1980831691505092915050565b6000611a9d8383611a73565b9150826002028217905092915050565b611ab682610e03565b67ffffffffffffffff811115611acf57611ace610ffb565b5b611ad9825461163a565b611ae4828285611a20565b600060209050601f831160018114611b175760008415611b05578287015190505b611b0f8582611a91565b865550611b77565b601f198416611b2586611901565b60005b82811015611b4d57848901518255600182019150602085019450602081019050611b28565b86831015611b6a5784890151611b66601f891682611a73565b8355505b6001600288020188555050505b505050505050565b6000608082019050611b946000830187610db3565b611ba16020830186610df4565b8181036040830152611bb38185610e5a565b9050611bc26060830184610db3565b95945050505050565b7f4e487b7100000000000000000000000000000000000000000000000000000000600052603260045260246000fdfea26469706673582212201771671c0156b9ca7c06b48dbd461096d0b784a4184bd2e0ea4fde670774700364736f6c634300081c0033",
  "linkReferences": {},
  "deployedLinkReferences": {}
}